{
  "_format": "hh-sol-artifact-1",
  "contractName": "MysteryBoxToken",
  "sourceName": "contracts/MysteryBoxToken_flat.sol",
  "abi": [
    {
      "inputs": [
        {
          "internalType": "string",
          "name": "name_",
          "type": "string"
        },
        {
          "internalType": "string",
          "name": "symbol_",
          "type": "string"
        },
        {
          "internalType": "uint256",
          "name": "_duration",
          "type": "uint256"
        }
      ],
      "stateMutability": "nonpayable",
      "type": "constructor"
    },
    {
      "anonymous": false,
      "inputs": [
        {
          "indexed": true,
          "internalType": "address",
          "name": "owner",
          "type": "address"
        },
        {
          "indexed": true,
          "internalType": "address",
          "name": "spender",
          "type": "address"
        },
        {
          "indexed": false,
          "internalType": "uint256",
          "name": "value",
          "type": "uint256"
        }
      ],
      "name": "Approval",
      "type": "event"
    },
    {
      "anonymous": false,
      "inputs": [
        {
          "indexed": true,
          "internalType": "address",
          "name": "previousOwner",
          "type": "address"
        },
        {
          "indexed": true,
          "internalType": "address",
          "name": "newOwner",
          "type": "address"
        }
      ],
      "name": "OwnershipTransferred",
      "type": "event"
    },
    {
      "anonymous": false,
      "inputs": [
        {
          "indexed": true,
          "internalType": "address",
          "name": "from",
          "type": "address"
        },
        {
          "indexed": true,
          "internalType": "address",
          "name": "to",
          "type": "address"
        },
        {
          "indexed": false,
          "internalType": "uint256",
          "name": "value",
          "type": "uint256"
        }
      ],
      "name": "Transfer",
      "type": "event"
    },
    {
      "inputs": [
        {
          "internalType": "address",
          "name": "owner",
          "type": "address"
        },
        {
          "internalType": "address",
          "name": "spender",
          "type": "address"
        }
      ],
      "name": "allowance",
      "outputs": [
        {
          "internalType": "uint256",
          "name": "",
          "type": "uint256"
        }
      ],
      "stateMutability": "view",
      "type": "function"
    },
    {
      "inputs": [
        {
          "internalType": "address",
          "name": "spender",
          "type": "address"
        },
        {
          "internalType": "uint256",
          "name": "amount",
          "type": "uint256"
        }
      ],
      "name": "approve",
      "outputs": [
        {
          "internalType": "bool",
          "name": "",
          "type": "bool"
        }
      ],
      "stateMutability": "nonpayable",
      "type": "function"
    },
    {
      "inputs": [
        {
          "internalType": "address",
          "name": "account",
          "type": "address"
        }
      ],
      "name": "balanceOf",
      "outputs": [
        {
          "internalType": "uint256",
          "name": "",
          "type": "uint256"
        }
      ],
      "stateMutability": "view",
      "type": "function"
    },
    {
      "inputs": [],
      "name": "decimals",
      "outputs": [
        {
          "internalType": "uint8",
          "name": "",
          "type": "uint8"
        }
      ],
      "stateMutability": "view",
      "type": "function"
    },
    {
      "inputs": [
        {
          "internalType": "address",
          "name": "spender",
          "type": "address"
        },
        {
          "internalType": "uint256",
          "name": "subtractedValue",
          "type": "uint256"
        }
      ],
      "name": "decreaseAllowance",
      "outputs": [
        {
          "internalType": "bool",
          "name": "",
          "type": "bool"
        }
      ],
      "stateMutability": "nonpayable",
      "type": "function"
    },
    {
      "inputs": [
        {
          "internalType": "address",
          "name": "",
          "type": "address"
        }
      ],
      "name": "discountClaimed",
      "outputs": [
        {
          "internalType": "bool",
          "name": "",
          "type": "bool"
        }
      ],
      "stateMutability": "view",
      "type": "function"
    },
    {
      "inputs": [],
      "name": "duration",
      "outputs": [
        {
          "internalType": "uint256",
          "name": "",
          "type": "uint256"
        }
      ],
      "stateMutability": "view",
      "type": "function"
    },
    {
      "inputs": [],
      "name": "endingTime",
      "outputs": [
        {
          "internalType": "uint256",
          "name": "",
          "type": "uint256"
        }
      ],
      "stateMutability": "view",
      "type": "function"
    },
    {
      "inputs": [],
      "name": "getMintingPrice",
      "outputs": [
        {
          "internalType": "uint256",
          "name": "",
          "type": "uint256"
        }
      ],
      "stateMutability": "view",
      "type": "function"
    },
    {
      "inputs": [
        {
          "internalType": "address",
          "name": "spender",
          "type": "address"
        },
        {
          "internalType": "uint256",
          "name": "addedValue",
          "type": "uint256"
        }
      ],
      "name": "increaseAllowance",
      "outputs": [
        {
          "internalType": "bool",
          "name": "",
          "type": "bool"
        }
      ],
      "stateMutability": "nonpayable",
      "type": "function"
    },
    {
      "inputs": [
        {
          "internalType": "uint256",
          "name": "amount",
          "type": "uint256"
        }
      ],
      "name": "mint",
      "outputs": [],
      "stateMutability": "payable",
      "type": "function"
    },
    {
      "inputs": [
        {
          "internalType": "uint256",
          "name": "_discount",
          "type": "uint256"
        },
        {
          "internalType": "bytes",
          "name": "_signature",
          "type": "bytes"
        }
      ],
      "name": "mintDiscount",
      "outputs": [],
      "stateMutability": "payable",
      "type": "function"
    },
    {
      "inputs": [],
      "name": "name",
      "outputs": [
        {
          "internalType": "string",
          "name": "",
          "type": "string"
        }
      ],
      "stateMutability": "view",
      "type": "function"
    },
    {
      "inputs": [],
      "name": "owner",
      "outputs": [
        {
          "internalType": "address",
          "name": "",
          "type": "address"
        }
      ],
      "stateMutability": "view",
      "type": "function"
    },
    {
      "inputs": [],
      "name": "renounceOwnership",
      "outputs": [],
      "stateMutability": "nonpayable",
      "type": "function"
    },
    {
      "inputs": [],
      "name": "saleOn",
      "outputs": [
        {
          "internalType": "bool",
          "name": "",
          "type": "bool"
        }
      ],
      "stateMutability": "view",
      "type": "function"
    },
    {
      "inputs": [],
      "name": "setSaleOff",
      "outputs": [],
      "stateMutability": "nonpayable",
      "type": "function"
    },
    {
      "inputs": [],
      "name": "setSaleOn",
      "outputs": [],
      "stateMutability": "nonpayable",
      "type": "function"
    },
    {
      "inputs": [],
      "name": "startTime",
      "outputs": [],
      "stateMutability": "nonpayable",
      "type": "function"
    },
    {
      "inputs": [],
      "name": "startingTime",
      "outputs": [
        {
          "internalType": "uint256",
          "name": "",
          "type": "uint256"
        }
      ],
      "stateMutability": "view",
      "type": "function"
    },
    {
      "inputs": [],
      "name": "symbol",
      "outputs": [
        {
          "internalType": "string",
          "name": "",
          "type": "string"
        }
      ],
      "stateMutability": "view",
      "type": "function"
    },
    {
      "inputs": [],
      "name": "totalSupply",
      "outputs": [
        {
          "internalType": "uint256",
          "name": "",
          "type": "uint256"
        }
      ],
      "stateMutability": "view",
      "type": "function"
    },
    {
      "inputs": [
        {
          "internalType": "address",
          "name": "to",
          "type": "address"
        },
        {
          "internalType": "uint256",
          "name": "amount",
          "type": "uint256"
        }
      ],
      "name": "transfer",
      "outputs": [
        {
          "internalType": "bool",
          "name": "",
          "type": "bool"
        }
      ],
      "stateMutability": "nonpayable",
      "type": "function"
    },
    {
      "inputs": [
        {
          "internalType": "address",
          "name": "from",
          "type": "address"
        },
        {
          "internalType": "address",
          "name": "to",
          "type": "address"
        },
        {
          "internalType": "uint256",
          "name": "amount",
          "type": "uint256"
        }
      ],
      "name": "transferFrom",
      "outputs": [
        {
          "internalType": "bool",
          "name": "",
          "type": "bool"
        }
      ],
      "stateMutability": "nonpayable",
      "type": "function"
    },
    {
      "inputs": [
        {
          "internalType": "address",
          "name": "newOwner",
          "type": "address"
        }
      ],
      "name": "transferOwnership",
      "outputs": [],
      "stateMutability": "nonpayable",
      "type": "function"
    },
    {
      "inputs": [],
      "name": "withdrawToOwner",
      "outputs": [],
      "stateMutability": "nonpayable",
      "type": "function"
    }
  ],
  "bytecode": "0x60806040523480156200001157600080fd5b5060405162003793380380620037938339818101604052810190620000379190620002b0565b82828160039080519060200190620000519291906200016b565b5080600490805190602001906200006a9291906200016b565b5050506200008d620000816200009d60201b60201c565b620000a560201b60201c565b80600881905550505050620004f2565b600033905090565b6000600560009054906101000a900473ffffffffffffffffffffffffffffffffffffffff16905081600560006101000a81548173ffffffffffffffffffffffffffffffffffffffff021916908373ffffffffffffffffffffffffffffffffffffffff1602179055508173ffffffffffffffffffffffffffffffffffffffff168173ffffffffffffffffffffffffffffffffffffffff167f8be0079c531659141344cd1fd0a4f28419497f9722a3daafe3b4186f6b6457e060405160405180910390a35050565b8280546200017990620003e9565b90600052602060002090601f0160209004810192826200019d5760008555620001e9565b82601f10620001b857805160ff1916838001178555620001e9565b82800160010185558215620001e9579182015b82811115620001e8578251825591602001919060010190620001cb565b5b509050620001f89190620001fc565b5090565b5b8082111562000217576000816000905550600101620001fd565b5090565b6000620002326200022c8462000373565b6200034a565b905082815260208101848484011115620002515762000250620004b8565b5b6200025e848285620003b3565b509392505050565b600082601f8301126200027e576200027d620004b3565b5b8151620002908482602086016200021b565b91505092915050565b600081519050620002aa81620004d8565b92915050565b600080600060608486031215620002cc57620002cb620004c2565b5b600084015167ffffffffffffffff811115620002ed57620002ec620004bd565b5b620002fb8682870162000266565b935050602084015167ffffffffffffffff8111156200031f576200031e620004bd565b5b6200032d8682870162000266565b9250506040620003408682870162000299565b9150509250925092565b60006200035662000369565b90506200036482826200041f565b919050565b6000604051905090565b600067ffffffffffffffff82111562000391576200039062000484565b5b6200039c82620004c7565b9050602081019050919050565b6000819050919050565b60005b83811015620003d3578082015181840152602081019050620003b6565b83811115620003e3576000848401525b50505050565b600060028204905060018216806200040257607f821691505b6020821081141562000419576200041862000455565b5b50919050565b6200042a82620004c7565b810181811067ffffffffffffffff821117156200044c576200044b62000484565b5b80604052505050565b7f4e487b7100000000000000000000000000000000000000000000000000000000600052602260045260246000fd5b7f4e487b7100000000000000000000000000000000000000000000000000000000600052604160045260246000fd5b600080fd5b600080fd5b600080fd5b600080fd5b6000601f19601f8301169050919050565b620004e381620003a9565b8114620004ef57600080fd5b50565b61329180620005026000396000f3fe6080604052600436106101815760003560e01c8063773ef1cf116100d1578063a0712d681161008a578063bc4d9b5d11610064578063bc4d9b5d1461055c578063cc57b0fc14610573578063dd62ed3e1461058a578063f2fde38b146105c757610181565b8063a0712d68146104c6578063a457c2d7146104e2578063a9059cbb1461051f57610181565b8063773ef1cf146103c657806377d24762146103f157806378e979251461041c5780638da5cb5b1461043357806395d89b411461045e5780639f2d83fd1461048957610181565b8063395093511161013e5780636c47a6c3116101185780636c47a6c31461032b5780636e0a0a3e1461035657806370a0823114610372578063715018a6146103af57610181565b806339509351146102ac57806339518b5e146102e95780633cb40e161461031457610181565b806306fdde0314610186578063095ea7b3146101b15780630fb5a6b4146101ee57806318160ddd1461021957806323b872dd14610244578063313ce56714610281575b600080fd5b34801561019257600080fd5b5061019b6105f0565b6040516101a89190612547565b60405180910390f35b3480156101bd57600080fd5b506101d860048036038101906101d39190611f6c565b610682565b6040516101e591906124e7565b60405180910390f35b3480156101fa57600080fd5b506102036106a5565b6040516102109190612869565b60405180910390f35b34801561022557600080fd5b5061022e6106ab565b60405161023b9190612869565b60405180910390f35b34801561025057600080fd5b5061026b60048036038101906102669190611f19565b6106b5565b60405161027891906124e7565b60405180910390f35b34801561028d57600080fd5b506102966106e4565b6040516102a39190612884565b60405180910390f35b3480156102b857600080fd5b506102d360048036038101906102ce9190611f6c565b6106e9565b6040516102e091906124e7565b60405180910390f35b3480156102f557600080fd5b506102fe610720565b60405161030b9190612869565b60405180910390f35b34801561032057600080fd5b50610329610726565b005b34801561033757600080fd5b5061034061083b565b60405161034d9190612869565b60405180910390f35b610370600480360381019061036b9190611fd9565b610841565b005b34801561037e57600080fd5b5061039960048036038101906103949190611eac565b610b18565b6040516103a69190612869565b60405180910390f35b3480156103bb57600080fd5b506103c4610b60565b005b3480156103d257600080fd5b506103db610be8565b6040516103e891906124e7565b60405180910390f35b3480156103fd57600080fd5b50610406610bfb565b6040516104139190612869565b60405180910390f35b34801561042857600080fd5b50610431610c7c565b005b34801561043f57600080fd5b50610448610d4a565b60405161045591906124cc565b60405180910390f35b34801561046a57600080fd5b50610473610d74565b6040516104809190612547565b60405180910390f35b34801561049557600080fd5b506104b060048036038101906104ab9190611eac565b610e06565b6040516104bd91906124e7565b60405180910390f35b6104e060048036038101906104db9190611fac565b610e26565b005b3480156104ee57600080fd5b5061050960048036038101906105049190611f6c565b610ea1565b60405161051691906124e7565b60405180910390f35b34801561052b57600080fd5b5061054660048036038101906105419190611f6c565b610f18565b60405161055391906124e7565b60405180910390f35b34801561056857600080fd5b50610571610f3b565b005b34801561057f57600080fd5b5061058861102a565b005b34801561059657600080fd5b506105b160048036038101906105ac9190611ed9565b611119565b6040516105be9190612869565b60405180910390f35b3480156105d357600080fd5b506105ee60048036038101906105e99190611eac565b6111a0565b005b6060600380546105ff90612ad2565b80601f016020809104026020016040519081016040528092919081815260200182805461062b90612ad2565b80156106785780601f1061064d57610100808354040283529160200191610678565b820191906000526020600020905b81548152906001019060200180831161065b57829003601f168201915b5050505050905090565b60008061068d611298565b905061069a8185856112a0565b600191505092915050565b60085481565b6000600254905090565b6000806106c0611298565b90506106cd85828561146b565b6106d88585856114f7565b60019150509392505050565b600090565b6000806106f4611298565b90506107158185856107068589611119565b610710919061291c565b6112a0565b600191505092915050565b60065481565b61072e611298565b73ffffffffffffffffffffffffffffffffffffffff1661074c610d4a565b73ffffffffffffffffffffffffffffffffffffffff16146107a2576040517f08c379a000000000000000000000000000000000000000000000000000000000815260040161079990612729565b60405180910390fd5b6000479050600081116107ea576040517f08c379a00000000000000000000000000000000000000000000000000000000081526004016107e1906127c9565b60405180910390fd5b6107f2611298565b73ffffffffffffffffffffffffffffffffffffffff166108fc829081150290604051600060405180830381858888f19350505050158015610837573d6000803e3d6000fd5b5050565b60075481565b818161084b610d4a565b73ffffffffffffffffffffffffffffffffffffffff1661086b8383611778565b73ffffffffffffffffffffffffffffffffffffffff16146108c1576040517f08c379a00000000000000000000000000000000000000000000000000000000081526004016108b8906127e9565b60405180910390fd5b60011515600960009054906101000a900460ff16151514610917576040517f08c379a000000000000000000000000000000000000000000000000000000000815260040161090e906125a9565b60405180910390fd5b600060075414610966576007544210610965576040517f08c379a000000000000000000000000000000000000000000000000000000000815260040161095c906126c9565b60405180910390fd5b5b600a60003373ffffffffffffffffffffffffffffffffffffffff1673ffffffffffffffffffffffffffffffffffffffff16815260200190815260200160002060009054906101000a900460ff16156109f3576040517f08c379a00000000000000000000000000000000000000000000000000000000081526004016109ea90612749565b60405180910390fd5b600084118015610a035750606484105b610a42576040517f08c379a0000000000000000000000000000000000000000000000000000000008152600401610a3990612629565b60405180910390fd5b6064846064610a5191906129fd565b610a59610bfb565b610a6391906129a3565b610a6d9190612972565b341015610aaf576040517f08c379a0000000000000000000000000000000000000000000000000000000008152600401610aa690612769565b60405180910390fd5b610aba3360016117c7565b6001600a60003373ffffffffffffffffffffffffffffffffffffffff1673ffffffffffffffffffffffffffffffffffffffff16815260200190815260200160002060006101000a81548160ff02191690831515021790555050505050565b60008060008373ffffffffffffffffffffffffffffffffffffffff1673ffffffffffffffffffffffffffffffffffffffff168152602001908152602001600020549050919050565b610b68611298565b73ffffffffffffffffffffffffffffffffffffffff16610b86610d4a565b73ffffffffffffffffffffffffffffffffffffffff1614610bdc576040517f08c379a0000000000000000000000000000000000000000000000000000000008152600401610bd390612729565b60405180910390fd5b610be66000611927565b565b600960009054906101000a900460ff1681565b6000806006541415610c17576702c68af0bb1400009050610c79565b6000600854606460065442610c2c91906129fd565b610c3691906129a3565b610c409190612972565b9050606481670429d069189e0000610c5891906129a3565b610c629190612972565b6702c68af0bb140000610c75919061291c565b9150505b90565b610c84611298565b73ffffffffffffffffffffffffffffffffffffffff16610ca2610d4a565b73ffffffffffffffffffffffffffffffffffffffff1614610cf8576040517f08c379a0000000000000000000000000000000000000000000000000000000008152600401610cef90612729565b60405180910390fd5b600b60009054906101000a900460ff1615610d1257600080fd5b4260068190555060085442610d27919061291c565b6007819055506001600b60006101000a81548160ff021916908315150217905550565b6000600560009054906101000a900473ffffffffffffffffffffffffffffffffffffffff16905090565b606060048054610d8390612ad2565b80601f0160208091040260200160405190810160405280929190818152602001828054610daf90612ad2565b8015610dfc5780601f10610dd157610100808354040283529160200191610dfc565b820191906000526020600020905b815481529060010190602001808311610ddf57829003601f168201915b5050505050905090565b600a6020528060005260406000206000915054906101000a900460ff1681565b600960009054906101000a900460ff16610e75576040517f08c379a0000000000000000000000000000000000000000000000000000000008152600401610e6c906126e9565b60405180910390fd5b610e7d610bfb565b81610e8891906129a3565b341015610e9457600080fd5b610e9e33826117c7565b50565b600080610eac611298565b90506000610eba8286611119565b905083811015610eff576040517f08c379a0000000000000000000000000000000000000000000000000000000008152600401610ef690612829565b60405180910390fd5b610f0c82868684036112a0565b60019250505092915050565b600080610f23611298565b9050610f308185856114f7565b600191505092915050565b610f43611298565b73ffffffffffffffffffffffffffffffffffffffff16610f61610d4a565b73ffffffffffffffffffffffffffffffffffffffff1614610fb7576040517f08c379a0000000000000000000000000000000000000000000000000000000008152600401610fae90612729565b60405180910390fd5b60011515600960009054906101000a900460ff1615151461100d576040517f08c379a0000000000000000000000000000000000000000000000000000000008152600401611004906126a9565b60405180910390fd5b6000600960006101000a81548160ff021916908315150217905550565b611032611298565b73ffffffffffffffffffffffffffffffffffffffff16611050610d4a565b73ffffffffffffffffffffffffffffffffffffffff16146110a6576040517f08c379a000000000000000000000000000000000000000000000000000000000815260040161109d90612729565b60405180910390fd5b60001515600960009054906101000a900460ff161515146110fc576040517f08c379a00000000000000000000000000000000000000000000000000000000081526004016110f390612809565b60405180910390fd5b6001600960006101000a81548160ff021916908315150217905550565b6000600160008473ffffffffffffffffffffffffffffffffffffffff1673ffffffffffffffffffffffffffffffffffffffff16815260200190815260200160002060008373ffffffffffffffffffffffffffffffffffffffff1673ffffffffffffffffffffffffffffffffffffffff16815260200190815260200160002054905092915050565b6111a8611298565b73ffffffffffffffffffffffffffffffffffffffff166111c6610d4a565b73ffffffffffffffffffffffffffffffffffffffff161461121c576040517f08c379a000000000000000000000000000000000000000000000000000000000815260040161121390612729565b60405180910390fd5b600073ffffffffffffffffffffffffffffffffffffffff168173ffffffffffffffffffffffffffffffffffffffff16141561128c576040517f08c379a0000000000000000000000000000000000000000000000000000000008152600401611283906125e9565b60405180910390fd5b61129581611927565b50565b600033905090565b600073ffffffffffffffffffffffffffffffffffffffff168373ffffffffffffffffffffffffffffffffffffffff161415611310576040517f08c379a0000000000000000000000000000000000000000000000000000000008152600401611307906127a9565b60405180910390fd5b600073ffffffffffffffffffffffffffffffffffffffff168273ffffffffffffffffffffffffffffffffffffffff161415611380576040517f08c379a000000000000000000000000000000000000000000000000000000000815260040161137790612609565b60405180910390fd5b80600160008573ffffffffffffffffffffffffffffffffffffffff1673ffffffffffffffffffffffffffffffffffffffff16815260200190815260200160002060008473ffffffffffffffffffffffffffffffffffffffff1673ffffffffffffffffffffffffffffffffffffffff168152602001908152602001600020819055508173ffffffffffffffffffffffffffffffffffffffff168373ffffffffffffffffffffffffffffffffffffffff167f8c5be1e5ebec7d5bd14f71427d1e84f3dd0314c0f7b2291e5b200ac8c7c3b9258360405161145e9190612869565b60405180910390a3505050565b60006114778484611119565b90507fffffffffffffffffffffffffffffffffffffffffffffffffffffffffffffffff81146114f157818110156114e3576040517f08c379a00000000000000000000000000000000000000000000000000000000081526004016114da90612649565b60405180910390fd5b6114f084848484036112a0565b5b50505050565b600073ffffffffffffffffffffffffffffffffffffffff168373ffffffffffffffffffffffffffffffffffffffff161415611567576040517f08c379a000000000000000000000000000000000000000000000000000000000815260040161155e90612789565b60405180910390fd5b600073ffffffffffffffffffffffffffffffffffffffff168273ffffffffffffffffffffffffffffffffffffffff1614156115d7576040517f08c379a00000000000000000000000000000000000000000000000000000000081526004016115ce90612589565b60405180910390fd5b6115e28383836119ed565b60008060008573ffffffffffffffffffffffffffffffffffffffff1673ffffffffffffffffffffffffffffffffffffffff16815260200190815260200160002054905081811015611668576040517f08c379a000000000000000000000000000000000000000000000000000000000815260040161165f90612669565b60405180910390fd5b8181036000808673ffffffffffffffffffffffffffffffffffffffff1673ffffffffffffffffffffffffffffffffffffffff16815260200190815260200160002081905550816000808573ffffffffffffffffffffffffffffffffffffffff1673ffffffffffffffffffffffffffffffffffffffff16815260200190815260200160002060008282546116fb919061291c565b925050819055508273ffffffffffffffffffffffffffffffffffffffff168473ffffffffffffffffffffffffffffffffffffffff167fddf252ad1be2c89b69c2b068fc378daa952ba7f163c4a11628f55a4df523b3ef8460405161175f9190612869565b60405180910390a36117728484846119f2565b50505050565b60006117bf826117b130338760405160200161179693929190612469565b604051602081830303815290604052805190602001206119f7565b611a2790919063ffffffff16565b905092915050565b600073ffffffffffffffffffffffffffffffffffffffff168273ffffffffffffffffffffffffffffffffffffffff161415611837576040517f08c379a000000000000000000000000000000000000000000000000000000000815260040161182e90612849565b60405180910390fd5b611843600083836119ed565b8060026000828254611855919061291c565b92505081905550806000808473ffffffffffffffffffffffffffffffffffffffff1673ffffffffffffffffffffffffffffffffffffffff16815260200190815260200160002060008282546118aa919061291c565b925050819055508173ffffffffffffffffffffffffffffffffffffffff16600073ffffffffffffffffffffffffffffffffffffffff167fddf252ad1be2c89b69c2b068fc378daa952ba7f163c4a11628f55a4df523b3ef8360405161190f9190612869565b60405180910390a3611923600083836119f2565b5050565b6000600560009054906101000a900473ffffffffffffffffffffffffffffffffffffffff16905081600560006101000a81548173ffffffffffffffffffffffffffffffffffffffff021916908373ffffffffffffffffffffffffffffffffffffffff1602179055508173ffffffffffffffffffffffffffffffffffffffff168173ffffffffffffffffffffffffffffffffffffffff167f8be0079c531659141344cd1fd0a4f28419497f9722a3daafe3b4186f6b6457e060405160405180910390a35050565b505050565b505050565b600081604051602001611a0a91906124a6565b604051602081830303815290604052805190602001209050919050565b6000806000611a368585611a4e565b91509150611a4381611ad1565b819250505092915050565b600080604183511415611a905760008060006020860151925060408601519150606086015160001a9050611a8487828585611ca6565b94509450505050611aca565b604083511415611ac1576000806020850151915060408501519050611ab6868383611db3565b935093505050611aca565b60006002915091505b9250929050565b60006004811115611ae557611ae4612bcb565b5b816004811115611af857611af7612bcb565b5b1415611b0357611ca3565b60016004811115611b1757611b16612bcb565b5b816004811115611b2a57611b29612bcb565b5b1415611b6b576040517f08c379a0000000000000000000000000000000000000000000000000000000008152600401611b6290612569565b60405180910390fd5b60026004811115611b7f57611b7e612bcb565b5b816004811115611b9257611b91612bcb565b5b1415611bd3576040517f08c379a0000000000000000000000000000000000000000000000000000000008152600401611bca906125c9565b60405180910390fd5b60036004811115611be757611be6612bcb565b5b816004811115611bfa57611bf9612bcb565b5b1415611c3b576040517f08c379a0000000000000000000000000000000000000000000000000000000008152600401611c3290612689565b60405180910390fd5b600480811115611c4e57611c4d612bcb565b5b816004811115611c6157611c60612bcb565b5b1415611ca2576040517f08c379a0000000000000000000000000000000000000000000000000000000008152600401611c9990612709565b60405180910390fd5b5b50565b6000807f7fffffffffffffffffffffffffffffff5d576e7357a4501ddfe92f46681b20a08360001c1115611ce1576000600391509150611daa565b601b8560ff1614158015611cf95750601c8560ff1614155b15611d0b576000600491509150611daa565b600060018787878760405160008152602001604052604051611d309493929190612502565b6020604051602081039080840390855afa158015611d52573d6000803e3d6000fd5b505050602060405103519050600073ffffffffffffffffffffffffffffffffffffffff168173ffffffffffffffffffffffffffffffffffffffff161415611da157600060019250925050611daa565b80600092509250505b94509492505050565b60008060007f7fffffffffffffffffffffffffffffffffffffffffffffffffffffffffffffff60001b841690506000601b60ff8660001c901c611df6919061291c565b9050611e0487828885611ca6565b935093505050935093915050565b6000611e25611e20846128c4565b61289f565b905082815260208101848484011115611e4157611e40612c5d565b5b611e4c848285612a90565b509392505050565b600081359050611e638161322d565b92915050565b600082601f830112611e7e57611e7d612c58565b5b8135611e8e848260208601611e12565b91505092915050565b600081359050611ea681613244565b92915050565b600060208284031215611ec257611ec1612c67565b5b6000611ed084828501611e54565b91505092915050565b60008060408385031215611ef057611eef612c67565b5b6000611efe85828601611e54565b9250506020611f0f85828601611e54565b9150509250929050565b600080600060608486031215611f3257611f31612c67565b5b6000611f4086828701611e54565b9350506020611f5186828701611e54565b9250506040611f6286828701611e97565b9150509250925092565b60008060408385031215611f8357611f82612c67565b5b6000611f9185828601611e54565b9250506020611fa285828601611e97565b9150509250929050565b600060208284031215611fc257611fc1612c67565b5b6000611fd084828501611e97565b91505092915050565b60008060408385031215611ff057611fef612c67565b5b6000611ffe85828601611e97565b925050602083013567ffffffffffffffff81111561201f5761201e612c62565b5b61202b85828601611e69565b9150509250929050565b61203e81612a31565b82525050565b61205561205082612a31565b612b35565b82525050565b61206481612a43565b82525050565b61207381612a4f565b82525050565b61208a61208582612a4f565b612b47565b82525050565b600061209b826128f5565b6120a58185612900565b93506120b5818560208601612a9f565b6120be81612c6c565b840191505092915050565b60006120d6601883612900565b91506120e182612c8a565b602082019050919050565b60006120f9602383612900565b915061210482612cb3565b604082019050919050565b600061211c600b83612900565b915061212782612d02565b602082019050919050565b600061213f601f83612900565b915061214a82612d2b565b602082019050919050565b6000612162601c83612911565b915061216d82612d54565b601c82019050919050565b6000612185602683612900565b915061219082612d7d565b604082019050919050565b60006121a8602283612900565b91506121b382612dcc565b604082019050919050565b60006121cb602283612900565b91506121d682612e1b565b604082019050919050565b60006121ee601d83612900565b91506121f982612e6a565b602082019050919050565b6000612211602683612900565b915061221c82612e93565b604082019050919050565b6000612234602283612900565b915061223f82612ee2565b604082019050919050565b6000612257601183612900565b915061226282612f31565b602082019050919050565b600061227a601083612900565b915061228582612f5a565b602082019050919050565b600061229d600b83612900565b91506122a882612f83565b602082019050919050565b60006122c0602283612900565b91506122cb82612fac565b604082019050919050565b60006122e3602083612900565b91506122ee82612ffb565b602082019050919050565b6000612306602083612900565b915061231182613024565b602082019050919050565b6000612329600b83612900565b91506123348261304d565b602082019050919050565b600061234c602583612900565b915061235782613076565b604082019050919050565b600061236f602483612900565b915061237a826130c5565b604082019050919050565b6000612392601283612900565b915061239d82613114565b602082019050919050565b60006123b5602583612900565b91506123c08261313d565b604082019050919050565b60006123d8601083612900565b91506123e38261318c565b602082019050919050565b60006123fb602583612900565b9150612406826131b5565b604082019050919050565b600061241e601f83612900565b915061242982613204565b602082019050919050565b61243d81612a79565b82525050565b61245461244f82612a79565b612b63565b82525050565b61246381612a83565b82525050565b60006124758286612044565b6014820191506124858285612044565b6014820191506124958284612443565b602082019150819050949350505050565b60006124b182612155565b91506124bd8284612079565b60208201915081905092915050565b60006020820190506124e16000830184612035565b92915050565b60006020820190506124fc600083018461205b565b92915050565b6000608082019050612517600083018761206a565b612524602083018661245a565b612531604083018561206a565b61253e606083018461206a565b95945050505050565b600060208201905081810360008301526125618184612090565b905092915050565b60006020820190508181036000830152612582816120c9565b9050919050565b600060208201905081810360008301526125a2816120ec565b9050919050565b600060208201905081810360008301526125c28161210f565b9050919050565b600060208201905081810360008301526125e281612132565b9050919050565b6000602082019050818103600083015261260281612178565b9050919050565b600060208201905081810360008301526126228161219b565b9050919050565b60006020820190508181036000830152612642816121be565b9050919050565b60006020820190508181036000830152612662816121e1565b9050919050565b6000602082019050818103600083015261268281612204565b9050919050565b600060208201905081810360008301526126a281612227565b9050919050565b600060208201905081810360008301526126c28161224a565b9050919050565b600060208201905081810360008301526126e28161226d565b9050919050565b6000602082019050818103600083015261270281612290565b9050919050565b60006020820190508181036000830152612722816122b3565b9050919050565b60006020820190508181036000830152612742816122d6565b9050919050565b60006020820190508181036000830152612762816122f9565b9050919050565b600060208201905081810360008301526127828161231c565b9050919050565b600060208201905081810360008301526127a28161233f565b9050919050565b600060208201905081810360008301526127c281612362565b9050919050565b600060208201905081810360008301526127e281612385565b9050919050565b60006020820190508181036000830152612802816123a8565b9050919050565b60006020820190508181036000830152612822816123cb565b9050919050565b60006020820190508181036000830152612842816123ee565b9050919050565b6000602082019050818103600083015261286281612411565b9050919050565b600060208201905061287e6000830184612434565b92915050565b6000602082019050612899600083018461245a565b92915050565b60006128a96128ba565b90506128b58282612b04565b919050565b6000604051905090565b600067ffffffffffffffff8211156128df576128de612c29565b5b6128e882612c6c565b9050602081019050919050565b600081519050919050565b600082825260208201905092915050565b600081905092915050565b600061292782612a79565b915061293283612a79565b9250827fffffffffffffffffffffffffffffffffffffffffffffffffffffffffffffffff0382111561296757612966612b6d565b5b828201905092915050565b600061297d82612a79565b915061298883612a79565b92508261299857612997612b9c565b5b828204905092915050565b60006129ae82612a79565b91506129b983612a79565b9250817fffffffffffffffffffffffffffffffffffffffffffffffffffffffffffffffff04831182151516156129f2576129f1612b6d565b5b828202905092915050565b6000612a0882612a79565b9150612a1383612a79565b925082821015612a2657612a25612b6d565b5b828203905092915050565b6000612a3c82612a59565b9050919050565b60008115159050919050565b6000819050919050565b600073ffffffffffffffffffffffffffffffffffffffff82169050919050565b6000819050919050565b600060ff82169050919050565b82818337600083830152505050565b60005b83811015612abd578082015181840152602081019050612aa2565b83811115612acc576000848401525b50505050565b60006002820490506001821680612aea57607f821691505b60208210811415612afe57612afd612bfa565b5b50919050565b612b0d82612c6c565b810181811067ffffffffffffffff82111715612b2c57612b2b612c29565b5b80604052505050565b6000612b4082612b51565b9050919050565b6000819050919050565b6000612b5c82612c7d565b9050919050565b6000819050919050565b7f4e487b7100000000000000000000000000000000000000000000000000000000600052601160045260246000fd5b7f4e487b7100000000000000000000000000000000000000000000000000000000600052601260045260246000fd5b7f4e487b7100000000000000000000000000000000000000000000000000000000600052602160045260246000fd5b7f4e487b7100000000000000000000000000000000000000000000000000000000600052602260045260246000fd5b7f4e487b7100000000000000000000000000000000000000000000000000000000600052604160045260246000fd5b600080fd5b600080fd5b600080fd5b600080fd5b6000601f19601f8301169050919050565b60008160601b9050919050565b7f45434453413a20696e76616c6964207369676e61747572650000000000000000600082015250565b7f45524332303a207472616e7366657220746f20746865207a65726f206164647260008201527f6573730000000000000000000000000000000000000000000000000000000000602082015250565b7f53616c65206973204f6666000000000000000000000000000000000000000000600082015250565b7f45434453413a20696e76616c6964207369676e6174757265206c656e67746800600082015250565b7f19457468657265756d205369676e6564204d6573736167653a0a333200000000600082015250565b7f4f776e61626c653a206e6577206f776e657220697320746865207a65726f206160008201527f6464726573730000000000000000000000000000000000000000000000000000602082015250565b7f45524332303a20617070726f766520746f20746865207a65726f20616464726560008201527f7373000000000000000000000000000000000000000000000000000000000000602082015250565b7f646973636f756e74206d757374206265206265747765656e203020616e64203160008201527f3030000000000000000000000000000000000000000000000000000000000000602082015250565b7f45524332303a20696e73756666696369656e7420616c6c6f77616e6365000000600082015250565b7f45524332303a207472616e7366657220616d6f756e742065786365656473206260008201527f616c616e63650000000000000000000000000000000000000000000000000000602082015250565b7f45434453413a20696e76616c6964207369676e6174757265202773272076616c60008201527f7565000000000000000000000000000000000000000000000000000000000000602082015250565b7f53616c6520616c7265616479204f66662e000000000000000000000000000000600082015250565b7f53616c6520686173206578706972656400000000000000000000000000000000600082015250565b7f53616c65206973206f6666000000000000000000000000000000000000000000600082015250565b7f45434453413a20696e76616c6964207369676e6174757265202776272076616c60008201527f7565000000000000000000000000000000000000000000000000000000000000602082015250565b7f4f776e61626c653a2063616c6c6572206973206e6f7420746865206f776e6572600082015250565b7f63616c6c657220616c726561647920757365642068697320646973636f756e74600082015250565b7f6d697373696e6720455448000000000000000000000000000000000000000000600082015250565b7f45524332303a207472616e736665722066726f6d20746865207a65726f20616460008201527f6472657373000000000000000000000000000000000000000000000000000000602082015250565b7f45524332303a20617070726f76652066726f6d20746865207a65726f2061646460008201527f7265737300000000000000000000000000000000000000000000000000000000602082015250565b7f4e6f2045544820746f2057697468647261770000000000000000000000000000600082015250565b7f63616c6c6572206e6f7420617574686f72697a656420746f206765742064697360008201527f636f756e74000000000000000000000000000000000000000000000000000000602082015250565b7f53616c6520616c7265616479204f6e2e00000000000000000000000000000000600082015250565b7f45524332303a2064656372656173656420616c6c6f77616e63652062656c6f7760008201527f207a65726f000000000000000000000000000000000000000000000000000000602082015250565b7f45524332303a206d696e7420746f20746865207a65726f206164647265737300600082015250565b61323681612a31565b811461324157600080fd5b50565b61324d81612a79565b811461325857600080fd5b5056fea264697066735822122051166eee58c61d6b3bd16283d6fd156bac8130767e7e6e8258db81eb214ab87e64736f6c63430008070033",
  "linkReferences": {},
  "deployedLinkReferences": {}
}